:020000040800F2
:1000000000C00020F51C0008390400083B0400086B
:100010003D0400083F0400084104000800000000FF
:100020000000000000000000000000004304000881
:1000300045040008000000004704000849040008C7
:10004000451D0008451D0008451D0008451D000808
:10005000451D0008451D0008451D0008451D0008F8
:10006000451D0008451D0008451D0008451D0008E8
:10007000451D0008451D0008451D0008451D0008D8
:10008000451D0008451D0008451D0008451D0008C8
:10009000451D0008451D0008451D0008451D0008B8
:1000A000451D0008451D0008451D0008451D0008A8
:1000B000451D00080000000000000000451D00086C
:1000C000451D0008451D0008451D0008451D000888
:1000D000451D0008451D0008451D0008451D000878
:1000E000451D0008451D000800000000000000003C
:1000F0000000000000000000000000000000000000
:1001000000000000451D000800000000451D00081B
:100110000000000000000000451D0008451D00080B
:10012000451D0008451D0008451D0008451D000827
:10013000451D000800000000000000000000000055
:10014000451D0008451D0008451D0008451D000807
:10015000451D0008451D0008451D0008451D0008F7
:10016000451D0008451D0008451D00080000000051
:10017000451D0008451D0008451D00080000000041
:10018000451D0008451D0008451D00080000000031
:1001900053B94AB9002908BF00281CBF4FF0FF31EE
:1001A0004FF0FF3000F00CB8ADF1080C6DE904CE53
:1001B00001F0F6FDDDF804E0DDE9022304B070474C
:1001C000704700BF0348044B834202D0034B03B186
:1001D00018477047100000201000002000000000A9
:1001E0000548064B1B1AD90F01EBA301491002D099
:1001F000034B03B118477047100000201000002087
:100200000000000010B5064C237843B9FFF7DAFF71
:10021000044B13B10448AFF300800123237010BDD9
:1002200010000020000000005C20000808B5054B0D
:100230001BB105490548AFF30080BDE80840FFF752
:10024000CFBF00BF00000000140000205C200008A9
:10025000F0B58BB000240594069407940894099493
:100260002D4BDA6C42F00402DA64DA6C02F004021C
:100270000192019ADA6C42F08002DA64DA6C02F0E0
:1002800080020292029ADA6C42F00102DA64DA6CBD
:1002900002F001020392039ADA6C42F00202DA647D
:1002A000DB6C03F002030493049B2246B0214FF061
:1002B000904001F04DFC194E22464FF4005130465B
:1002C00001F046FC4FF4005705974FF404130693D2
:1002D000079405A9124801F057FBB02305930125A7
:1002E00006950794089405A94FF0904001F04CFB47
:1002F000402305930694079505A94FF0904001F01F
:1003000043FB059706950794089405A9304601F02C
:100310003BFB0BB0F0BD00BF0010024000040048E2
:100320000008004872B6FEE708B50B480B4B0360A7
:100330004FF4E133436000238360C36003610C2208
:1003400042618361C3610362436200F06EFB00B9E6
:1003500008BDFFF7E7FF00BF2C000020004400406D
:1003600000B597B04422002105A801F011FD00233B
:10037000009301930293039304934FF4007001F0F0
:10038000FDFB20BB022305934FF4807208921022DC
:1003900009920F931093012211920A2212920722BE
:1003A00013921493159305A800F062FC88B90F23EB
:1003B00000930323019300230293039304930421E6
:1003C000684600F08BFF30B917B05DF804FBFFF70B
:1003D000A9FFFFF7A7FFFFF7A5FF000010B582B048
:1003E000134B93E8030002AB03E9030000F076FB34
:1003F000FFF7B6FFFFF72CFFFFF796FF4FF4005112
:100400000C4801F0AAFB002300E00133B3F1807F28
:10041000FBDB002400E00134B4F1807FF9DA002C2A
:10042000F9D14FF40051034801F097FBF3E700BF07
:100430007820000800040048FEE7FEE7FEE7FEE73C
:10044000FEE770477047704708B500F05DFB08BDD8
:1004500082B00A4B1A6E42F001021A661A6E02F05E
:1004600001020092009A9A6D42F080529A659B6D4B
:1004700003F080530193019B02B0704700100240CB
:1004800010B5A0B0044600211B911C911D911E9136
:100490001F91602203A801F07BFC2268184B9A424E
:1004A00001D020B010BD0223039303A801F0BAF8D5
:1004B00010BB144B9A6D42F400329A659A6D02F4A7
:1004C00000320192019ADA6C42F00102DA64DB6CCC
:1004D00003F001030293029B0C231B9302231C9342
:1004E00000231D9303231E9307231F931BA94FF083
:1004F000904001F049FAD4E7FFF714FFD9E700BFB5
:100500000044004000100240026852E8003F23F41B
:10051000907342E800310029F6D1026802F1080325
:1005200053E8003F23F00103083242E8003100297C
:10053000F3D1036E012B06D02023C0F880300023B6
:10054000036683667047026852E8003F23F0100399
:1005500042E800310029F6D1EEE7000010B504466C
:10056000016883680269134342691343C2691343F4
:100570000868954A02401A430A602268536823F4C7
:100580004053E1680B435360A16922688F4B9A4244
:1005900001D0236A1943936823F430630B439360BB
:1005A00023688B4A93421FD08A4A934230D08A4AAA
:1005B000934246D0854A934255D0102283498B42BC
:1005C0007AD0E069B0F5004F00F0A680082A00F26A
:1005D0000F81DFE812F0CE00E500CC000D01E8004D
:1005E0000D010D010D01EB0002F55842D2F88820F3
:1005F00002F00302032A09D8DFE802F002044A06E7
:100600000122DBE70422D9E70822D7E71022D5E749
:1006100002F5E632D2F8882002F00C020C2A0ED83D
:10062000DFE802F0070D0D0D090D0D0D380D0D0D54
:100630000B000022C2E70422C0E70822BEE7102216
:10064000BCE702F5E432D2F8882002F03002202A1A
:1006500022D004D812B3102A22D10422AEE7302AC5
:1006600020D10822AAE702F5C832D2F8882002F485
:100670004062B2F5006F17D005D8BAB1B2F5806FFD
:1006800016D104229AE7B2F5406F13D1082295E7FC
:10069000022293E7022291E702228FE700228DE7F0
:1006A00010228BE7102289E7022287E7002285E7E4
:1006B000102283E7102281E7082A7AD8DFE802F0C7
:1006C00008792A792779797905004FF4004003E009
:1006D00000F0CEFE00286ED0626802EB4203834237
:1006E0006BD8B0EB023F6AD8010E00025308C01865
:1006F0004FF0000341F10001FFF74AFDA0F5407201
:10070000364B9A425DD82368D860002044E000F060
:1007100055FADFE73248DFE7082A63D8DFE802F05E
:1007200007210562246262620B002D4803E000F09D
:100730009FFE002858D06268530803EB4003B3FBC8
:10074000F2F3A3F110014FF6EF7291424ED89AB234
:1007500022F00F02C3F3420313432268D360002048
:100760001AE000F097FEE4E700F028FAE1E71C4801
:1007700003E000F07DFE00283CD0636800EB5300EE
:10078000B0FBF3F0A0F110024FF6EF739A4233D8AA
:10079000236880B2D86000200023A366E36610BD02
:1007A00000F078FEE7E700F009FAE4E74FF40040D4
:1007B000E3E70120F0E70020EEE70120ECE701206D
:1007C000EAE70120E8E700BFF369FFEF008000409F
:1007D000003801400044004000480040FFFC0F008A
:1007E0000024F4000120D7E70020D5E70120D3E75B
:1007F0000120D1E70020CFE70120CDE7436A13F0C5
:10080000080F06D00268536823F40043416B0B4382
:100810005360436A13F0010F06D00268536823F453
:100820000033816A0B435360436A13F0020F06D012
:100830000268536823F48033C16A0B435360436AF0
:1008400013F0040F06D00268536823F48023016B71
:100850000B435360436A13F0100F06D0026893688D
:1008600023F48053816B0B439360436A13F0200F92
:1008700006D00268936823F40053C16B0B43936066
:10088000436A13F0400F0AD00268536823F48013C0
:10089000016C0B435360036CB3F5801F0BD0436AAC
:1008A00013F0800F06D00268536823F40023816C94
:1008B0000B43536070470268536823F4C003416CD4
:1008C0000B435360EBE72DE9F84305460E46174608
:1008D0009946DDF820802B68DC6936EA04040CBFF9
:1008E00001240024BC4236D1B8F1FF3FF3D000F020
:1008F00017F9A0EB0900404530D8B8F1000F2FD010
:100900002B681A6812F0040FE5D0802EE3D0402E39
:10091000E1D0DA6912F0080F11D1DA6912F4006F30
:10092000D9D04FF400621A622846FFF7EDFD20236C
:10093000C5F88430002385F8783003200CE00824C3
:100940001C622846FFF7E0FDC5F88440002385F8C7
:100950007830012000E00020BDE8F8830320FBE7A9
:100960000320F9E730B583B004460023C0F8843093
:1009700000F0D6F805462268126812F0080F0FD171
:1009800023681B6813F0040F26D12023E367C4F803
:10099000803000202066606684F8780003B030BDA7
:1009A0006FF07E430093034600224FF4001120466F
:1009B000FFF789FF0028E3D0226852E8003F23F0C8
:1009C000800342E800310029F6D12023E3670023A9
:1009D00084F878300320E1E76FF07E4300932B46E4
:1009E00000224FF480012046FFF76DFF0028CCD095
:1009F000226852E8003F23F4907342E80031002956
:100A0000F6D1226802F1080353E8003F23F0010306
:100A1000083242E800310029F3D12023C4F88030A5
:100A2000002384F878300320B8E768B310B5044693
:100A3000C36F03B32423E3672268136823F0010321
:100A40001360636AE3B92046FFF788FD012811D0DF
:100A50002268536823F4904353602268936823F01C
:100A60002A0393602268136843F001031360204651
:100A7000FFF778FF10BD80F87830FFF701FDD9E768
:100A80002046FFF7BBFEDEE701207047104B1B78C6
:100A90000BB90120704710B504464FF47A70B0FBD3
:100AA000F3F30C4A1068B0FBF3F001F005F968B9F4
:100AB0000F2C01D901200AE0002221464FF0FF301F
:100AC00001F0EAF8044B1C60002000E0012010BD9A
:100AD00000000020080000200400002010B5094A92
:100AE000136843F480731360032001F0C3F80020FF
:100AF000FFF7CCFF10B10124204610BD0446FFF7DC
:100B0000A7FCF9E700200240034B1B78034A116859
:100B10000B441360704700BF00000020B4000020A9
:100B2000014B1868704700BFB400002030B583B097
:100B30000446204B9B6D13F0805F0BD001F016F83C
:100B4000B0F5007F17D0802C1FD82DD0702C2DD061
:100B500000211BE0174DAB6D43F08053AB65AB6DCF
:100B600003F080530193019B01F000F8AB6D23F07B
:100B70008053AB65E4E7802C03D9A02C03D9022174
:100B800004E0002102E0012100E003210A4A136889
:100B900023F007030B431360136803F007038B4232
:100BA00006D1002003B030BD0221EFE70121EDE7BF
:100BB0000120F7E70010024000200240284A936815
:100BC000D26802F0030213F00C030AD00C2B06D0FB
:100BD000042B1FD0082B20D00020024610E0012A51
:100BE000F6D11F4A126812F0080F0CD11C4AD2F835
:100BF0009420C2F303221B4951F8222043B1002064
:100C00000C2B0DD07047164A1268C2F30312F2E79C
:100C10001046F5E714480022F2E714480022EFE7F7
:100C20000F4BDB6803F00303022B16D0032B00D11C
:100C30000E4A0B49CB68C3F302130133C868C0F3F3
:100C4000062002FB00F0B0FBF3F0CB68C3F3416376
:100C500001335B00B0FBF3F0D4E7034AE9E700BFE0
:100C600000100240802000080024F40000127A00E6
:100C7000002800F01C83F0B583B00446964B9D68B5
:100C800005F00C05DE6806F00306036813F0100F8C
:100C90005AD0E5B10C2D18D0A369002B00F0BB8011
:100CA0008D4A136843F001031360FFF739FF0746CD
:100CB000894B1B6813F0020F40F09A80FFF730FF5A
:100CC000C01B0228F4D90320FCE2012EE4D1824BA0
:100CD0001B6813F0020F03D0A369002B00F0E98218
:100CE000206A7D4B1B6813F0080F5BD07A4B1B68A2
:100CF00003F0F00398425CD8774B1A6842F0080280
:100D00001A601A6822F0F002216A0A431A605A68CF
:100D100022F47F42E16942EA01225A60002D60D04C
:100D2000FFF74CFF6C4B9B68C3F303136B4AD35C18
:100D300003F01F03D8406A4B18606A4B1868FFF72E
:100D4000A5FE002840F0BE82236813F0010F00F0DA
:100D50008180082D75D00C2D71D06368B3F5803F6C
:100D600000F09780B3F5A02F00F099805A4B1A68D5
:100D700022F480321A601A6822F480221A606368B2
:100D8000002B00F09980FFF7CBFE0746524B1B6803
:100D900013F4003F5ED1FFF7C3FEC01B6428F5D9F2
:100DA00003208FE24C4BD3F894301B0903F0F0037F
:100DB000A0E7FFF7BBFE002840F07D82464B1A6893
:100DC00042F008021A601A6822F0F002216A0A430F
:100DD0001A605A6822F47F42E16942EA01225A60AD
:100DE0009EE7206AFFF7A2FE002899D0012069E261
:100DF000394B1A6842F008021A601A6822F0F002B1
:100E0000216A0A431A605A6822F47F42E16942EA81
:100E100001225A6098E7304A136823F001031360F7
:100E2000FFF77EFE07462C4B1B6813F0020F8BD09A
:100E3000FFF776FEC01B0228F5D9032042E2032EFD
:100E40008BD1254B1B6813F4003F03D06368002B44
:100E500000F03382236813F0020F58D0042D45D0E0
:100E60000C2D41D0E368002B77D01B4A136843F464
:100E700080731360FFF754FE0646174B1B6813F48C
:100E8000806F61D1FFF74CFE801B0228F5D903204B
:100E900018E2114A136843F4803313606FE703F1DB
:100EA0008043A3F53C331A6842F480221A601A6822
:100EB00042F480321A6062E7FFF732FE0746064BC3
:100EC0001B6813F4003FC5D0FFF72AFEC01B64283F
:100ED000F5D90320F6E100BF00100240B820000859
:100EE0000800002004000020022EBBD1A44B1B6888
:100EF00013F4806F03D0E368002B00F0E081A04A78
:100F0000536823F0F853216943EA0163536023686F
:100F100013F0080F4CD063699BB3994AD2F8943010
:100F200043F00103C2F89430FFF7FAFD0646944BF4
:100F3000D3F8943013F0020F3AD1FFF7F1FD801B84
:100F40000228F4D90320BDE18D4A536823F0F853F9
:100F5000216943EA01635360D9E7894A136823F49E
:100F600080731360FFF7DCFD0646854B1B6813F4A6
:100F7000806FCCD0FFF7D4FD801B0228F5D9032069
:100F8000A0E17F4AD2F8943023F00103C2F89430F4
:100F9000FFF7C6FD06467A4BD3F8943013F0020FE4
:100FA00006D0FFF7BDFD801B0228F4D9032089E19C
:100FB000236813F0040F7AD0714B9B6D13F0805FA0
:100FC00036D16F4B9A6D42F080529A659B6D03F05B
:100FD00080530193019B01266A4B1B6813F4807FA9
:100FE00028D0A368012B39D0052B3FD0644BD3F810
:100FF000902022F00102C3F89020D3F8902022F034
:101000000402C3F89020A368002B3DD0FFF788FDB1
:1010100007465B4BD3F8903013F0020F46D1FFF731
:101020007FFDC01B41F288339842F2D9032049E189
:101030000026D1E7534A136843F480731360FFF727
:101040006FFD07464F4B1B6813F4807FC9D1FFF734
:1010500067FDC01B0228F5D9032033E1484AD2F8C6
:10106000903043F00103C2F89030CCE7444BD3F802
:10107000902042F00402C3F89020D3F8902042F070
:101080000102C3F89020BEE7FFF74AFD07463C4B3C
:10109000D3F8903013F0020F08D0FFF741FDC01BCA
:1010A00041F288339842F2D903200BE1E6B9236874
:1010B00013F0200F35D0636AE3B1314AD2F898308B
:1010C00043F00103C2F89830FFF72AFD06462C4B87
:1010D000D3F8983013F0020F23D1FFF721FD801BC6
:1010E0000228F4D90320EDE0254A936D23F08053C4
:1010F0009365DCE7224AD2F8983023F00103C2F866
:101100009830FFF70DFD06461D4BD3F8983013F0CD
:10111000020F06D0FFF704FD801B0228F4D903203C
:10112000D0E0A36A002B00F0CC80022B17D00C2D4E
:1011300000F0CC80124A136823F080731360FFF72D
:10114000EFFC04460E4B1B6813F0007F00F0A880F4
:10115000FFF7E6FC001B0228F4D90320B2E0084B9D
:10116000DB6803F00301E26A91420DD00C2D00F020
:10117000AB80034B1B6813F0806F2FD00120A1E0E0
:10118000001002400070004003F07002216B013932
:10119000B2EB011FEAD103F4FE42616BB2EB012F07
:1011A000E4D103F07842A16BB2EBC16FDED103F45E
:1011B000C001E26B5208013AB1EB425FD6D103F0B5
:1011C000C063226C5208013AB3EB426FCED1404B60
:1011D0001B6813F0007F49D0002073E03C4A13687D
:1011E00023F080731360FFF79BFC0546384B1B68A8
:1011F00013F0007F06D0FFF793FC401B0228F5D9BF
:1012000003205FE0324AD36832491940E36A206B19
:10121000013843EA0013606B43EA0023E06B4008A7
:10122000013843EA4053206C4008013843EA4063E8
:10123000A06B43EAC0631943D160136843F0807325
:101240001360D36843F08073D360FFF769FC0446F2
:101250001F4B1B6813F0007F06D1FFF761FC001BDA
:101260000228F5D903202DE000202BE0184B1A6846
:1012700042F080721A60DA6842F08072DA60FFF73A
:101280004FFC0446124B1B6813F0007F06D1FFF79A
:1012900047FC031B022BF5D9032013E0002011E0CB
:1012A0000B4AD1680C4B0B40D36000200AE00120B0
:1012B0007047012006E0012004E0012002E0012047
:1012C00000E0002003B0F0BD0120FBE70120F9E7BA
:1012D000001002408C809D01FCFFEEFE002800F013
:1012E000AF8070B50D460446594B1B6803F00703E9
:1012F0008B420BD2564A136823F007030B4313604B
:10130000136803F007038B4240F09C80236813F0BE
:10131000020F0CD0A2684F4B9B6803F0F0039A4277
:1013200005D94C498B6823F0F0031A438A6023687F
:1013300013F0010F39D06368032B09D0022B26D09C
:1013400063BB444A126812F0020F06D1012076E016
:10135000404A126812F0007F76D03E498A6822F037
:10136000030213438B60FFF7DBFB0646394B9B6898
:1013700003F00C036268B3EB820F16D0FFF7D0FBCB
:10138000801B41F288339842F0D9032057E0314A5C
:10139000126812F4003FE0D1012050E02D4A12689B
:1013A00012F4806FD9D1012049E0236813F0020FB5
:1013B0000CD0A268274B9B6803F0F0039A4205D239
:1013C00024498B6823F0F0031A438A60204B1B6882
:1013D00003F00703AB420AD91D4A136823F0070341
:1013E0002B431360136803F00703AB422ED123682D
:1013F00013F0040F06D0174A936823F4E063E16802
:101400000B439360236813F0080F07D0114A9368C9
:1014100023F46053216943EAC1039360FFF7CEFBD5
:101420000C4B9B68C3F303130B4AD35C03F01F03FD
:10143000D8400A4B18600A4B1868FFF727FB70BDAD
:10144000012070470120FAE70120F8E70120F6E7C4
:101450000020024000100240B820000808000020D0
:1014600004000020014B1868704700BF08000020EE
:1014700008B5FFF7F7FF054B9B68C3F30223044A47
:10148000D35C03F01F03D84008BD00BF001002402A
:10149000B020000808B5FFF7E5FF054B9B68C3F3D4
:1014A000C223044AD35C03F01F03D84008BD00BF29
:1014B00000100240B0200008F8B504460D46584B15
:1014C000DB6813F0030F17D0554BDB6803F0030301
:1014D0000268934201D0012616E0002A00F09E80A7
:1014E0004F4BDB68C3F3021301334268934201D0D0
:1014F000012609E000261BE00368022B57D0032BCE
:101500005CD0012B02D001263046F8BD444A126857
:1015100012F0020F5ED04248C26822F07302616886
:10152000013943EA01131343C3600026002EEBD1B7
:101530003B4A136823F080631360FFF7F1FA074614
:10154000374B1B6813F0006F05D0FFF7E9FAC31B98
:10155000022BF5D90326002ED6D1002D3CD13049DF
:101560000B6923F0784323F4FE43A068E268D206B7
:1015700042EA002213430B61294A136843F0806357
:101580001360FFF7CDFA0546254B1B6813F0006F7B
:1015900005D1FFF7C5FA401B0228F5D90326002E16
:1015A000B2D11F4A1369A1690B431361ACE71C4A0E
:1015B000126812F4806FAED10126A5E7184A1268AE
:1015C00012F4003FA7D1164A126812F4802FA2D15C
:1015D000012699E70126A9E7012D0FD010480269DD
:1015E00022F0C06222F4FE42A16863695B08013BFD
:1015F0005B0643EA01231A430261BDE7084802691A
:1016000022F4C00222F4FE42A16823695B08013B78
:101610005B0543EA01231A430261ADE7012673E744
:10162000001002402DE9F04182B00446036813F433
:10163000006F25D0436CB3F5000F06D0B3F5400F13
:1016400012D04BB1012637461CE0B14AD36843F4AF
:101650008033D360002708E000210430FFF72CFF1F
:10166000074610B106460DE00027A94AD2F8883097
:1016700023F44003616C0B43C2F88830002601E07C
:1016800000263746236813F4003F6BD0A04B9B6DB8
:1016900013F0805F4CD19E4B9A6D42F080529A6558
:1016A0009B6D03F080530193019B4FF00108994A11
:1016B000136843F480731360FFF732FA0546954BC5
:1016C0001B6813F4807F05D1FFF72AFA401B02281C
:1016D000F5D90327002F40D18D4BD3F8903013F468
:1016E000407315D0E26D9A4212D0894AD2F89030F8
:1016F00023F44073D2F8901041F48031C2F8901076
:10170000D2F8901021F48031C2F89010C2F89030D5
:1017100013F0010F0FD1002F40F0F7807C4AD2F870
:10172000903023F44073E16D0B43C2F8903015E024
:101730004FF00008BBE7FFF7F3F90546744BD3F809
:10174000903013F0020FE6D1FFF7EAF9401B41F2A7
:1017500088339842F2D90327DDE73E46B8F1000FFF
:1017600040F0DA80236813F0010F08D0684AD2F8FD
:10177000883023F00303216A0B43C2F888302368C2
:1017800013F0020F08D0624AD2F8883023F00C031D
:10179000616A0B43C2F88830236813F0040F08D045
:1017A0005B4AD2F8883023F03003A16A0B43C2F8B9
:1017B0008830236813F0200F08D0554AD2F88830BB
:1017C00023F44063E16A0B43C2F88830236813F4C2
:1017D000007F08D04E4AD2F8883023F44023E16BD2
:1017E0000B43C2F88830236813F4806F08D0484A4E
:1017F000D2F8883023F44013216C0B43C2F88830B0
:10180000236813F0400F08D0414AD2F8883023F4FF
:101810004053216B0B43C2F88830236813F0800FCC
:1018200008D03B4AD2F8883023F44043616B0B4325
:10183000C2F88830236813F4807F08D0344AD2F885
:10184000883023F44033A16B0B43C2F888302368FF
:1018500013F4005F0FD02E4AD2F8883023F0406393
:10186000A16C0B43C2F88830A36CB3F1006F59D060
:10187000B3F1806F5BD0236813F4002F0FD0244A9C
:10188000D2F8883023F04063E16C0B43C2F8883013
:10189000E36CB3F1006F52D0B3F1806F54D0236882
:1018A00013F4802F0FD01A4AD2F8883023F0406307
:1018B000216D0B43C2F88830236DB3F1006F4BD01C
:1018C000B3F1806F4DD0236813F4804F0CD0104AD1
:1018D000D2F8883023F04053616D0B43C2F8883052
:1018E000636DB3F1805F44D0236813F4004F08D0D8
:1018F000074AD2F8883023F08043A16D0B43C2F829
:101900008830304602B0BDE8F0813E4626E700BF91
:1019100000100240007000401A4A936D23F080537B
:1019200093651FE7D36843F48013D360A3E70121D5
:10193000201DFFF7C1FD00289DD006469BE7D36818
:1019400043F48013D360AAE70121201DFFF7B4FD03
:101950000028A4D00646A2E7D36843F48013D360DE
:10196000B1E70121201DFFF7A7FD0028ABD00646F7
:10197000A9E70221201DFFF79FFD0028B4D00646ED
:10198000B2E700BF00100240F0B583B0002362E070
:1019900085685E000324B44025EA0405CC68B440A1
:1019A0002C438460456825EA0C054C68C4F3001498
:1019B0009C402C4344605FE0DD08083550F825402A
:1019C00003F0070C4FEA8C0C4FF00F0E0EFA0CFED2
:1019D00024EA0E0E0C6904FA0CF444EA0E0440F8F2
:1019E000254060E0042400E0002404FA0EF42C43B7
:1019F0000CF1020C524D45F82C40524CA568D443D2
:101A000025EA02064F6817F4801F01D042EA050656
:101A10004C4DAE60ED6804EA05064F6817F4001FF0
:101A200001D042EA0506474DEE606D6804EA0506FE
:101A30004F6817F4003F01D042EA0506414D6E6041
:101A40002D682C404E6816F4803F01D042EA050410
:101A50003C4A146001330A6832FA03F46ED04FF046
:101A6000010C0CFA03FC1CEA0202F3D04C6804F0EF
:101A70000304013C012C8BD94C6804F00304032CB3
:101A80000CD0C4685D004FF0030C0CFA05FC24EA8E
:101A90000C0C8C68AC4044EA0C04C4604C6804F044
:101AA0000304022C88D004684FEA430E4FF0030C65
:101AB0000CFA0EFC24EA0C0C4C6804F0030404FA43
:101AC0000EF444EA0C0404604C6814F4403FC1D0A6
:101AD0001D4C256E45F001052566246E04F00104B9
:101AE0000194019C4FEA930C0CF10205144C54F83C
:101AF000255003F0030E4FEA8E0E0F2404FA0EF465
:101B000025EA0405B0F1904F3FF46EAF0F4CA042B0
:101B10000ED004F58064A0420CD004F58064A0428D
:101B20000AD004F58064A0423FF45CAF07245CE770
:101B300001245AE7022458E7032456E703B0F0BD16
:101B40000000014000040140001002400004004871
:101B50000AB18161704781627047436901EA0302FB
:101B600021EA030141EA024181617047024B186892
:101B700000F4C060704700BF00700040B0F5007F07
:101B80000FD01F4B1B6803F4C063B3F5806F34D0D4
:101B90001B4A136823F4C06343F48063136000207E
:101BA0007047174B1B6803F4C063B3F5007F20D068
:101BB000134A136823F4C06343F400731360114B9A
:101BC0001B68322202FB03F30F4AA2FB03239B0C88
:101BD000013300E0013B0A4A526912F4806F01D0E0
:101BE000002BF7D1064B5B6913F4806F03D1002003
:101BF000704700207047032070470020704700BFE7
:101C0000007000400800002083DE1B43002808DB32
:101C10000901C9B200F1604000F5614080F800138D
:101C2000704700F00F000901C9B2014B1954704709
:101C300014ED00E000B500F00700C0F1070CBCF1A6
:101C4000040F28BF4FF0040C031D062B0FD9C31E31
:101C50004FF0FF3E0EFA0CF021EA000199400EFA17
:101C600003FE22EA0E0241EA02005DF804FB0023B3
:101C7000EEE70000074AD36823F4E0631B041B0C63
:101C8000000200F4E060034343F0BF6343F4003319
:101C9000D360704700ED00E010B50446054BD868EE
:101CA000C0F30220FFF7C6FF01462046FFF7AEFF54
:101CB00010BD00BF00ED00E00138B0F1807F0BD215
:101CC0004FF0E0235861054AF02182F823100020EC
:101CD000986107221A6170470120704700ED00E00B
:101CE000034AD2F8883043F47003C2F88830704752
:101CF00000ED00E0DFF834D0FFF7F2FF0C480D49AB
:101D00000D4A002302E0D458C4500433C4188C4256
:101D1000F9D30A4A0A4C002301E013600432A242BC
:101D2000FBD300F011F8FEF759FBFEE700C00020DE
:101D30000000002010000020E0200008100000201B
:101D4000B8000020FEE7000070B50D4D0D4C641B7F
:101D5000A4100026A64209D10B4D0C4C00F07EF9D0
:101D6000641BA4100026A64205D170BD55F8043BA3
:101D700098470136EEE755F8043B98470136F2E7FD
:101D8000D0200008D0200008D0200008D42000086F
:101D900002440346934200D1704703F8011BF9E760
:101DA0002DE9F047089D0C46002B4ED194468C45FA
:101DB0008646B2FA82F262D94AB1C2F1200391405A
:101DC00020FA03F30CFA02FC194300FA02FE4FEA70
:101DD0001C471FFA8CF6B1FBF7F44FEA1E4307FBD2
:101DE000141143EA014304FB06F199420AD91CEBA2
:101DF000030304F1FF3080F01281994240F20F8119
:101E0000023C6344591A1FFA8EF3B1FBF7F007FB4B
:101E1000101143EA014300FB06F69E420AD91CEB6F
:101E2000030300F1FF3180F0FC809E4240F2F98014
:101E3000634402389B1B40EA044000211DB1D3409B
:101E40000022C5E90032BDE8F0878B4205D90DB10B
:101E5000C5E9000100210846F5E7B3FA83F100293E
:101E600046D1A34202D39042C0F0F080861A64EBC0
:101E700003030120002DE6D0C5E90063E3E7002A53
:101E800040F09080A1EB0C044FEA1C481FFA8CF73D
:101E90000121B4FBF8F64FEA1E4308FB164443EA5F
:101EA000044307FB06F0984208D91CEB030306F134
:101EB000FF3402D2984200F2CD8026461C1A1FFA47
:101EC0008EF3B4FBF8F008FB104443EA044300FB34
:101ED00007F79F4208D91CEB030300F1FF3402D23D
:101EE0009F4200F2B0802046DB1B40EA0640A5E797
:101EF000C1F120068B4022FA06F71F4320FA06FCA8
:101F000004FA01F343EA0C03F44000FA01F8380C38
:101F10004FEA1349B4FBF0FE1FFA87FC00FB1E4496
:101F200049EA04440EFB0CF9A14502FA01F20AD970
:101F30003C190EF1FF3A80F08480A14540F2818087
:101F4000AEF1020E3C44A4EB09041FFA83F9B4FB82
:101F5000F0F300FB134449EA044403FB0CFCA445E2
:101F600007D93C1903F1FF3067D2A44565D9023B7C
:101F70003C4443EA0E40A0FB0293A4EB0C049C42B9
:101F8000CE469C4651D34ED055B1B8EB0E0364EB10
:101F90000C0404FA06F6CB401E43CC40C5E90064AD
:101FA000002150E7C2F1200320FA03F10CFA02FCF1
:101FB00024FA03F394400C434FEA1C4800FA02FE53
:101FC0001FFA8CF7B3FBF8F008FB1031230C43EA3F
:101FD000014300FB07F1994208D91CEB030300F110
:101FE000FF362CD299422AD9023863445B1AA4B234
:101FF000B3FBF8F108FB113344EA034401FB07F398
:10200000A34208D91CEB040401F1FF3613D2A3420A
:1020100011D902396444E41A41EA004139E704461F
:10202000F0E6084606E7C845AED2B9EB020E63EB10
:10203000070C0138A8E73146EDE7034699E730463B
:10204000D4E7D6467FE7634402384DE70646234689
:1020500008460FE7023E634430E700BFF8B500BF13
:10206000F8BC08BC9E467047F8B500BFF8BC08BC79
:082070009E46704700000000CD
:102078005369676E65640A00A0860100400D03007D
:10208800801A060000350C0040420F0080841E00B4
:1020980000093D0000127A000024F40000366E01A9
:1020A8000048E801006CDC020000000001020304A3
:1020B80000000000000000000102030406070809F0
:0820C800D8FCFF7F01000000BD
:0820D0002D02000800000000D1
:0820D8000502000800000000F1
:1020E000010000001000000000093D000000000099
:0400000508001CF5DE
:00000001FF
